{
  "contractName": "Escrow",
  "abi": [
    {
      "inputs": [
        {
          "internalType": "address",
          "name": "_agent",
          "type": "address"
        }
      ],
      "stateMutability": "payable",
      "type": "constructor",
      "payable": true
    },
    {
      "anonymous": false,
      "inputs": [
        {
          "indexed": true,
          "internalType": "bytes32",
          "name": "role",
          "type": "bytes32"
        },
        {
          "indexed": true,
          "internalType": "bytes32",
          "name": "previousAdminRole",
          "type": "bytes32"
        },
        {
          "indexed": true,
          "internalType": "bytes32",
          "name": "newAdminRole",
          "type": "bytes32"
        }
      ],
      "name": "RoleAdminChanged",
      "type": "event"
    },
    {
      "anonymous": false,
      "inputs": [
        {
          "indexed": true,
          "internalType": "bytes32",
          "name": "role",
          "type": "bytes32"
        },
        {
          "indexed": true,
          "internalType": "address",
          "name": "account",
          "type": "address"
        },
        {
          "indexed": true,
          "internalType": "address",
          "name": "sender",
          "type": "address"
        }
      ],
      "name": "RoleGranted",
      "type": "event"
    },
    {
      "anonymous": false,
      "inputs": [
        {
          "indexed": true,
          "internalType": "bytes32",
          "name": "role",
          "type": "bytes32"
        },
        {
          "indexed": true,
          "internalType": "address",
          "name": "account",
          "type": "address"
        },
        {
          "indexed": true,
          "internalType": "address",
          "name": "sender",
          "type": "address"
        }
      ],
      "name": "RoleRevoked",
      "type": "event"
    },
    {
      "inputs": [],
      "name": "AGENT_ROLE",
      "outputs": [
        {
          "internalType": "bytes32",
          "name": "",
          "type": "bytes32"
        }
      ],
      "stateMutability": "view",
      "type": "function",
      "constant": true
    },
    {
      "inputs": [],
      "name": "DEFAULT_ADMIN_ROLE",
      "outputs": [
        {
          "internalType": "bytes32",
          "name": "",
          "type": "bytes32"
        }
      ],
      "stateMutability": "view",
      "type": "function",
      "constant": true
    },
    {
      "inputs": [
        {
          "internalType": "bytes32",
          "name": "role",
          "type": "bytes32"
        }
      ],
      "name": "getRoleAdmin",
      "outputs": [
        {
          "internalType": "bytes32",
          "name": "",
          "type": "bytes32"
        }
      ],
      "stateMutability": "view",
      "type": "function",
      "constant": true
    },
    {
      "inputs": [
        {
          "internalType": "bytes32",
          "name": "role",
          "type": "bytes32"
        },
        {
          "internalType": "uint256",
          "name": "index",
          "type": "uint256"
        }
      ],
      "name": "getRoleMember",
      "outputs": [
        {
          "internalType": "address",
          "name": "",
          "type": "address"
        }
      ],
      "stateMutability": "view",
      "type": "function",
      "constant": true
    },
    {
      "inputs": [
        {
          "internalType": "bytes32",
          "name": "role",
          "type": "bytes32"
        }
      ],
      "name": "getRoleMemberCount",
      "outputs": [
        {
          "internalType": "uint256",
          "name": "",
          "type": "uint256"
        }
      ],
      "stateMutability": "view",
      "type": "function",
      "constant": true
    },
    {
      "inputs": [
        {
          "internalType": "bytes32",
          "name": "role",
          "type": "bytes32"
        },
        {
          "internalType": "address",
          "name": "account",
          "type": "address"
        }
      ],
      "name": "grantRole",
      "outputs": [],
      "stateMutability": "nonpayable",
      "type": "function"
    },
    {
      "inputs": [
        {
          "internalType": "bytes32",
          "name": "role",
          "type": "bytes32"
        },
        {
          "internalType": "address",
          "name": "account",
          "type": "address"
        }
      ],
      "name": "hasRole",
      "outputs": [
        {
          "internalType": "bool",
          "name": "",
          "type": "bool"
        }
      ],
      "stateMutability": "view",
      "type": "function",
      "constant": true
    },
    {
      "inputs": [
        {
          "internalType": "bytes32",
          "name": "role",
          "type": "bytes32"
        },
        {
          "internalType": "address",
          "name": "account",
          "type": "address"
        }
      ],
      "name": "renounceRole",
      "outputs": [],
      "stateMutability": "nonpayable",
      "type": "function"
    },
    {
      "inputs": [
        {
          "internalType": "bytes32",
          "name": "role",
          "type": "bytes32"
        },
        {
          "internalType": "address",
          "name": "account",
          "type": "address"
        }
      ],
      "name": "revokeRole",
      "outputs": [],
      "stateMutability": "nonpayable",
      "type": "function"
    },
    {
      "inputs": [
        {
          "internalType": "address",
          "name": "_payee",
          "type": "address"
        },
        {
          "internalType": "uint256",
          "name": "_amount",
          "type": "uint256"
        }
      ],
      "name": "deposit",
      "outputs": [],
      "stateMutability": "nonpayable",
      "type": "function"
    },
    {
      "inputs": [
        {
          "internalType": "address",
          "name": "_payee",
          "type": "address"
        },
        {
          "internalType": "uint256",
          "name": "_amount",
          "type": "uint256"
        }
      ],
      "name": "withdraw",
      "outputs": [],
      "stateMutability": "nonpayable",
      "type": "function"
    },
    {
      "inputs": [
        {
          "internalType": "address",
          "name": "_account",
          "type": "address"
        }
      ],
      "name": "getBalance",
      "outputs": [
        {
          "internalType": "uint256",
          "name": "",
          "type": "uint256"
        }
      ],
      "stateMutability": "view",
      "type": "function",
      "constant": true
    }
  ],
  "bytecode": "0x608060405260405162000fa638038062000fa68339818101604052602081101561002857600080fd5b81019080805190602001909291905050506100697fcab5a0bfe0b79d2c4b1c2e02599fa044d115b7511f9659307cb42769509677098261006f60201b60201c565b506101f7565b61007f828261008360201b60201c565b5050565b6100ae8160008085815260200190815260200160002060000161012060201b6108bd1790919060201c565b1561011c576100c161015660201b60201c565b73ffffffffffffffffffffffffffffffffffffffff168173ffffffffffffffffffffffffffffffffffffffff16837f2f8788117e7eff1d82e926ec794901d17c78024a50270940304540a733656f0d60405160405180910390a45b5050565b600061014e836000018373ffffffffffffffffffffffffffffffffffffffff1660001b61015e60201b60201c565b905092915050565b600033905090565b600061017083836101d460201b60201c565b6101c95782600001829080600181540180825580915050600190039060005260206000200160009091909190915055826000018054905083600101600084815260200190815260200160002081905550600190506101ce565b600090505b92915050565b600080836001016000848152602001908152602001600020541415905092915050565b610d9f80620002076000396000f3fe608060405234801561001057600080fd5b50600436106100b45760003560e01c806391d148541161007157806391d1485414610265578063a217fddf146102c9578063ca15c873146102e7578063d547741f14610329578063f3fef3a314610377578063f8b2cb4f146103c5576100b4565b806322459e18146100b9578063248a9ca3146100d75780632f2ff15d1461011957806336568abe1461016757806347e7ef24146101b55780639010d07c14610203575b600080fd5b6100c161041d565b6040518082815260200191505060405180910390f35b610103600480360360208110156100ed57600080fd5b8101908080359060200190929190505050610441565b6040518082815260200191505060405180910390f35b6101656004803603604081101561012f57600080fd5b8101908080359060200190929190803573ffffffffffffffffffffffffffffffffffffffff169060200190929190505050610460565b005b6101b36004803603604081101561017d57600080fd5b8101908080359060200190929190803573ffffffffffffffffffffffffffffffffffffffff1690602001909291905050506104e9565b005b610201600480360360408110156101cb57600080fd5b81019080803573ffffffffffffffffffffffffffffffffffffffff16906020019092919080359060200190929190505050610582565b005b6102396004803603604081101561021957600080fd5b81019080803590602001909291908035906020019092919050505061066f565b604051808273ffffffffffffffffffffffffffffffffffffffff16815260200191505060405180910390f35b6102b16004803603604081101561027b57600080fd5b8101908080359060200190929190803573ffffffffffffffffffffffffffffffffffffffff1690602001909291905050506106a0565b60405180821515815260200191505060405180910390f35b6102d16106d1565b6040518082815260200191505060405180910390f35b610313600480360360208110156102fd57600080fd5b81019080803590602001909291905050506106d8565b6040518082815260200191505060405180910390f35b6103756004803603604081101561033f57600080fd5b8101908080359060200190929190803573ffffffffffffffffffffffffffffffffffffffff1690602001909291905050506106fe565b005b6103c36004803603604081101561038d57600080fd5b81019080803573ffffffffffffffffffffffffffffffffffffffff16906020019092919080359060200190929190505050610787565b005b610407600480360360208110156103db57600080fd5b81019080803573ffffffffffffffffffffffffffffffffffffffff169060200190929190505050610874565b6040518082815260200191505060405180910390f35b7fcab5a0bfe0b79d2c4b1c2e02599fa044d115b7511f9659307cb427695096770981565b6000806000838152602001908152602001600020600201549050919050565b610486600080848152602001908152602001600020600201546104816108ed565b6106a0565b6104db576040517f08c379a000000000000000000000000000000000000000000000000000000000815260040180806020018281038252602f815260200180610cdc602f913960400191505060405180910390fd5b6104e582826108f5565b5050565b6104f16108ed565b73ffffffffffffffffffffffffffffffffffffffff168173ffffffffffffffffffffffffffffffffffffffff1614610574576040517f08c379a000000000000000000000000000000000000000000000000000000000815260040180806020018281038252602f815260200180610d3b602f913960400191505060405180910390fd5b61057e8282610988565b5050565b6105ac7fcab5a0bfe0b79d2c4b1c2e02599fa044d115b7511f9659307cb4276950967709336106a0565b61061e576040517f08c379a00000000000000000000000000000000000000000000000000000000081526004018080602001828103825260178152602001807f43616c6c6572206d75737420626520616e206167656e7400000000000000000081525060200191505060405180910390fd5b80600160008473ffffffffffffffffffffffffffffffffffffffff1673ffffffffffffffffffffffffffffffffffffffff168152602001908152602001600020600082825401925050819055505050565b600061069882600080868152602001908152602001600020600001610a1b90919063ffffffff16565b905092915050565b60006106c982600080868152602001908152602001600020600001610a3590919063ffffffff16565b905092915050565b6000801b81565b60006106f7600080848152602001908152602001600020600001610a65565b9050919050565b6107246000808481526020019081526020016000206002015461071f6108ed565b6106a0565b610779576040517f08c379a0000000000000000000000000000000000000000000000000000000008152600401808060200182810382526030815260200180610d0b6030913960400191505060405180910390fd5b6107838282610988565b5050565b6107b17fcab5a0bfe0b79d2c4b1c2e02599fa044d115b7511f9659307cb4276950967709336106a0565b610823576040517f08c379a00000000000000000000000000000000000000000000000000000000081526004018080602001828103825260178152602001807f43616c6c6572206d75737420626520616e206167656e7400000000000000000081525060200191505060405180910390fd5b80600160008473ffffffffffffffffffffffffffffffffffffffff1673ffffffffffffffffffffffffffffffffffffffff168152602001908152602001600020600082825403925050819055505050565b6000600160008373ffffffffffffffffffffffffffffffffffffffff1673ffffffffffffffffffffffffffffffffffffffff168152602001908152602001600020549050919050565b60006108e5836000018373ffffffffffffffffffffffffffffffffffffffff1660001b610a7a565b905092915050565b600033905090565b61091c816000808581526020019081526020016000206000016108bd90919063ffffffff16565b15610984576109296108ed565b73ffffffffffffffffffffffffffffffffffffffff168173ffffffffffffffffffffffffffffffffffffffff16837f2f8788117e7eff1d82e926ec794901d17c78024a50270940304540a733656f0d60405160405180910390a45b5050565b6109af81600080858152602001908152602001600020600001610aea90919063ffffffff16565b15610a17576109bc6108ed565b73ffffffffffffffffffffffffffffffffffffffff168173ffffffffffffffffffffffffffffffffffffffff16837ff6391f5c32d9c69d2a47ea670b442974b53935d1edc7fd64eb21e047a839171b60405160405180910390a45b5050565b6000610a2a8360000183610b1a565b60001c905092915050565b6000610a5d836000018373ffffffffffffffffffffffffffffffffffffffff1660001b610b9d565b905092915050565b6000610a7382600001610bc0565b9050919050565b6000610a868383610b9d565b610adf578260000182908060018154018082558091505060019003906000526020600020016000909190919091505582600001805490508360010160008481526020019081526020016000208190555060019050610ae4565b600090505b92915050565b6000610b12836000018373ffffffffffffffffffffffffffffffffffffffff1660001b610bd1565b905092915050565b600081836000018054905011610b7b576040517f08c379a0000000000000000000000000000000000000000000000000000000008152600401808060200182810382526022815260200180610cba6022913960400191505060405180910390fd5b826000018281548110610b8a57fe5b9060005260206000200154905092915050565b600080836001016000848152602001908152602001600020541415905092915050565b600081600001805490509050919050565b60008083600101600084815260200190815260200160002054905060008114610cad5760006001820390506000600186600001805490500390506000866000018281548110610c1c57fe5b9060005260206000200154905080876000018481548110610c3957fe5b9060005260206000200181905550600183018760010160008381526020019081526020016000208190555086600001805480610c7157fe5b60019003818190600052602060002001600090559055866001016000878152602001908152602001600020600090556001945050505050610cb3565b60009150505b9291505056fe456e756d657261626c655365743a20696e646578206f7574206f6620626f756e6473416363657373436f6e74726f6c3a2073656e646572206d75737420626520616e2061646d696e20746f206772616e74416363657373436f6e74726f6c3a2073656e646572206d75737420626520616e2061646d696e20746f207265766f6b65416363657373436f6e74726f6c3a2063616e206f6e6c792072656e6f756e636520726f6c657320666f722073656c66a2646970667358221220af9cb982c005d60a471ccd5b58e948d38838685a877380674687cf4e07dc038364736f6c63430007010033",
  "immutableReferences": {},
  "source": "// SPDX-License-Identifier: MIT\r\npragma solidity ^0.7.1;\r\n\r\nimport \"openzeppelin-solidity/contracts/access/AccessControl.sol\";\r\n\r\ncontract Escrow is AccessControl {\r\n    // create new role identifier\r\n    bytes32 public constant AGENT_ROLE = keccak256(\"AGENT_ROLE\");\r\n    // bytes32 public constant BUYER_ROLE = keccak256(\"BUYER_ROLE\");\r\n    // bytes32 public constant SELLER_ROLE = keccak256(\"SELLER_ROLE\");\r\n\r\n    mapping(address => uint256) escrowBalances;\r\n\r\n    constructor(address _agent) payable {\r\n        // constructor(address _agent,address _buyer,address _seller) payable {\r\n        // create and assign role to agent in constructor\r\n        _setupRole(AGENT_ROLE, _agent);\r\n        // _setupRole(BUYER_ROLE, _buyer);\r\n        // _setupRole(SELLER_ROLE, _seller);\r\n    }\r\n\r\n    function deposit(address _payee, uint256 _amount) public {\r\n        require(hasRole(AGENT_ROLE, msg.sender), \"Caller must be an agent\");\r\n\r\n        escrowBalances[_payee] += _amount;\r\n    }\r\n\r\n    function withdraw(address _payee, uint256 _amount) public {\r\n        // require only agent can withdraw\r\n        require(hasRole(AGENT_ROLE, msg.sender), \"Caller must be an agent\");\r\n\r\n        // require(escrowBalances[_payee] -= _amount >= 0,\"amount ove\");\r\n\r\n        escrowBalances[_payee] -= _amount;\r\n    }\r\n\r\n    function getBalance(address _account) public view returns (uint256) {\r\n        return escrowBalances[_account];\r\n    }\r\n}\r\n",
  "sourcePath": "C:/users/litad/onedrive/documents/gbc/winter semmester/DESIGN PATTERNS FOR BLOCKCHAIN/Escrow/openzeppelin/contracts/Escrow.sol",
  "compiler": {
    "name": "solc",
    "version": "0.7.1+commit.f4a555be.Emscripten.clang"
  },
  "schemaVersion": "3.3.3",
  "updatedAt": "2021-02-07T19:50:32.822Z",
  "networkType": "ethereum",
  "devdoc": {
    "kind": "dev",
    "methods": {
      "getRoleAdmin(bytes32)": {
        "details": "Returns the admin role that controls `role`. See {grantRole} and {revokeRole}. To change a role's admin, use {_setRoleAdmin}."
      },
      "getRoleMember(bytes32,uint256)": {
        "details": "Returns one of the accounts that have `role`. `index` must be a value between 0 and {getRoleMemberCount}, non-inclusive. Role bearers are not sorted in any particular way, and their ordering may change at any point. WARNING: When using {getRoleMember} and {getRoleMemberCount}, make sure you perform all queries on the same block. See the following https://forum.openzeppelin.com/t/iterating-over-elements-on-enumerableset-in-openzeppelin-contracts/2296[forum post] for more information."
      },
      "getRoleMemberCount(bytes32)": {
        "details": "Returns the number of accounts that have `role`. Can be used together with {getRoleMember} to enumerate all bearers of a role."
      },
      "grantRole(bytes32,address)": {
        "details": "Grants `role` to `account`. If `account` had not been already granted `role`, emits a {RoleGranted} event. Requirements: - the caller must have ``role``'s admin role."
      },
      "hasRole(bytes32,address)": {
        "details": "Returns `true` if `account` has been granted `role`."
      },
      "renounceRole(bytes32,address)": {
        "details": "Revokes `role` from the calling account. Roles are often managed via {grantRole} and {revokeRole}: this function's purpose is to provide a mechanism for accounts to lose their privileges if they are compromised (such as when a trusted device is misplaced). If the calling account had been granted `role`, emits a {RoleRevoked} event. Requirements: - the caller must be `account`."
      },
      "revokeRole(bytes32,address)": {
        "details": "Revokes `role` from `account`. If `account` had been granted `role`, emits a {RoleRevoked} event. Requirements: - the caller must have ``role``'s admin role."
      }
    },
    "version": 1
  },
  "userdoc": {
    "kind": "user",
    "methods": {},
    "version": 1
  }
}